{
  "_format": "hh-sol-artifact-1",
  "contractName": "CertificateRegistry",
  "sourceName": "contracts/CertificateRegistry.sol",
  "abi": [
    {
      "inputs": [],
      "stateMutability": "nonpayable",
      "type": "constructor"
    },
    {
      "anonymous": false,
      "inputs": [
        {
          "indexed": true,
          "internalType": "bytes32",
          "name": "certificateHash",
          "type": "bytes32"
        },
        {
          "indexed": true,
          "internalType": "string",
          "name": "studentId",
          "type": "string"
        },
        {
          "indexed": false,
          "internalType": "string",
          "name": "certificateType",
          "type": "string"
        },
        {
          "indexed": false,
          "internalType": "string",
          "name": "ipfsHash",
          "type": "string"
        },
        {
          "indexed": false,
          "internalType": "uint256",
          "name": "issuedAt",
          "type": "uint256"
        }
      ],
      "name": "CertificateIssued",
      "type": "event"
    },
    {
      "anonymous": false,
      "inputs": [
        {
          "indexed": true,
          "internalType": "bytes32",
          "name": "certificateHash",
          "type": "bytes32"
        },
        {
          "indexed": true,
          "internalType": "string",
          "name": "studentId",
          "type": "string"
        },
        {
          "indexed": false,
          "internalType": "uint256",
          "name": "revokedAt",
          "type": "uint256"
        }
      ],
      "name": "CertificateRevoked",
      "type": "event"
    },
    {
      "inputs": [],
      "name": "certificateCounter",
      "outputs": [
        {
          "internalType": "uint256",
          "name": "",
          "type": "uint256"
        }
      ],
      "stateMutability": "view",
      "type": "function"
    },
    {
      "inputs": [
        {
          "internalType": "bytes32",
          "name": "",
          "type": "bytes32"
        }
      ],
      "name": "certificates",
      "outputs": [
        {
          "internalType": "uint256",
          "name": "id",
          "type": "uint256"
        },
        {
          "internalType": "address",
          "name": "studentWallet",
          "type": "address"
        },
        {
          "internalType": "string",
          "name": "studentId",
          "type": "string"
        },
        {
          "internalType": "string",
          "name": "certificateType",
          "type": "string"
        },
        {
          "internalType": "string",
          "name": "ipfsHash",
          "type": "string"
        },
        {
          "internalType": "uint256",
          "name": "issuedAt",
          "type": "uint256"
        },
        {
          "internalType": "address",
          "name": "issuedBy",
          "type": "address"
        },
        {
          "internalType": "bool",
          "name": "isValid",
          "type": "bool"
        }
      ],
      "stateMutability": "view",
      "type": "function"
    },
    {
      "inputs": [],
      "name": "getContractInfo",
      "outputs": [
        {
          "internalType": "address",
          "name": "contractOwner",
          "type": "address"
        },
        {
          "internalType": "uint256",
          "name": "totalCertificates",
          "type": "uint256"
        }
      ],
      "stateMutability": "view",
      "type": "function"
    },
    {
      "inputs": [
        {
          "internalType": "string",
          "name": "_studentId",
          "type": "string"
        }
      ],
      "name": "getStudentCertificates",
      "outputs": [
        {
          "internalType": "bytes32[]",
          "name": "",
          "type": "bytes32[]"
        }
      ],
      "stateMutability": "view",
      "type": "function"
    },
    {
      "inputs": [
        {
          "internalType": "address",
          "name": "_studentWallet",
          "type": "address"
        },
        {
          "internalType": "string",
          "name": "_studentId",
          "type": "string"
        },
        {
          "internalType": "string",
          "name": "_certificateType",
          "type": "string"
        },
        {
          "internalType": "string",
          "name": "_ipfsHash",
          "type": "string"
        }
      ],
      "name": "issueCertificate",
      "outputs": [
        {
          "internalType": "bytes32",
          "name": "",
          "type": "bytes32"
        }
      ],
      "stateMutability": "nonpayable",
      "type": "function"
    },
    {
      "inputs": [],
      "name": "owner",
      "outputs": [
        {
          "internalType": "address",
          "name": "",
          "type": "address"
        }
      ],
      "stateMutability": "view",
      "type": "function"
    },
    {
      "inputs": [
        {
          "internalType": "bytes32",
          "name": "_certificateHash",
          "type": "bytes32"
        }
      ],
      "name": "revokeCertificate",
      "outputs": [],
      "stateMutability": "nonpayable",
      "type": "function"
    },
    {
      "inputs": [
        {
          "internalType": "string",
          "name": "",
          "type": "string"
        },
        {
          "internalType": "uint256",
          "name": "",
          "type": "uint256"
        }
      ],
      "name": "studentCertificates",
      "outputs": [
        {
          "internalType": "bytes32",
          "name": "",
          "type": "bytes32"
        }
      ],
      "stateMutability": "view",
      "type": "function"
    },
    {
      "inputs": [
        {
          "internalType": "address",
          "name": "_newOwner",
          "type": "address"
        }
      ],
      "name": "transferOwnership",
      "outputs": [],
      "stateMutability": "nonpayable",
      "type": "function"
    },
    {
      "inputs": [
        {
          "internalType": "bytes32",
          "name": "_certificateHash",
          "type": "bytes32"
        }
      ],
      "name": "verifyCertificate",
      "outputs": [
        {
          "internalType": "bool",
          "name": "isValid",
          "type": "bool"
        },
        {
          "components": [
            {
              "internalType": "uint256",
              "name": "id",
              "type": "uint256"
            },
            {
              "internalType": "address",
              "name": "studentWallet",
              "type": "address"
            },
            {
              "internalType": "string",
              "name": "studentId",
              "type": "string"
            },
            {
              "internalType": "string",
              "name": "certificateType",
              "type": "string"
            },
            {
              "internalType": "string",
              "name": "ipfsHash",
              "type": "string"
            },
            {
              "internalType": "uint256",
              "name": "issuedAt",
              "type": "uint256"
            },
            {
              "internalType": "address",
              "name": "issuedBy",
              "type": "address"
            },
            {
              "internalType": "bool",
              "name": "isValid",
              "type": "bool"
            }
          ],
          "internalType": "struct CertificateRegistry.Certificate",
          "name": "certificate",
          "type": "tuple"
        }
      ],
      "stateMutability": "view",
      "type": "function"
    }
  ],
  "bytecode": "0x608060405234801561001057600080fd5b50600280546001600160a01b03191633179055600060035561121d806100376000396000f3fe608060405234801561001057600080fd5b506004361061009e5760003560e01c80638da5cb5b116100665780638da5cb5b146101505780638eb933ac1461017b578063ade3de2c1461018e578063c6cbc52a146101ae578063f2fde38b146101c357600080fd5b806367764b26146100a3578063742f0688146100bf5780637cc1f867146100e6578063850c17681461011c578063852bdf791461013d575b600080fd5b6100ac60035481565b6040519081526020015b60405180910390f35b6100d26100cd366004610b29565b6101d6565b6040516100b6989796959493929190610b92565b6100fd6002546003546001600160a01b0390911691565b604080516001600160a01b0390931683526020830191909152016100b6565b61012f61012a366004610b29565b6103c8565b6040516100b6929190610c0b565b6100ac61014b366004610d75565b610662565b600254610163906001600160a01b031681565b6040516001600160a01b0390911681526020016100b6565b6100ac610189366004610dd6565b6106a2565b6101a161019c366004610e6f565b6108a6565b6040516100b69190610eac565b6101c16101bc366004610b29565b610916565b005b6101c16101d1366004610ef0565b610a72565b60006020819052908152604090208054600182015460028301805492936001600160a01b039092169261020890610f12565b80601f016020809104026020016040519081016040528092919081815260200182805461023490610f12565b80156102815780601f1061025657610100808354040283529160200191610281565b820191906000526020600020905b81548152906001019060200180831161026457829003601f168201915b50505050509080600301805461029690610f12565b80601f01602080910402602001604051908101604052809291908181526020018280546102c290610f12565b801561030f5780601f106102e45761010080835404028352916020019161030f565b820191906000526020600020905b8154815290600101906020018083116102f257829003601f168201915b50505050509080600401805461032490610f12565b80601f016020809104026020016040519081016040528092919081815260200182805461035090610f12565b801561039d5780601f106103725761010080835404028352916020019161039d565b820191906000526020600020905b81548152906001019060200180831161038057829003601f168201915b5050505060058301546006909301549192916001600160a01b0381169150600160a01b900460ff1688565b60006104266040518061010001604052806000815260200160006001600160a01b031681526020016060815260200160608152602001606081526020016000815260200160006001600160a01b031681526020016000151581525090565b6000838152602081815260408083208151610100810183528154815260018201546001600160a01b031693810193909352600281018054919284019161046b90610f12565b80601f016020809104026020016040519081016040528092919081815260200182805461049790610f12565b80156104e45780601f106104b9576101008083540402835291602001916104e4565b820191906000526020600020905b8154815290600101906020018083116104c757829003601f168201915b505050505081526020016003820180546104fd90610f12565b80601f016020809104026020016040519081016040528092919081815260200182805461052990610f12565b80156105765780601f1061054b57610100808354040283529160200191610576565b820191906000526020600020905b81548152906001019060200180831161055957829003601f168201915b5050505050815260200160048201805461058f90610f12565b80601f01602080910402602001604051908101604052809291908181526020018280546105bb90610f12565b80156106085780601f106105dd57610100808354040283529160200191610608565b820191906000526020600020905b8154815290600101906020018083116105eb57829003601f168201915b5050509183525050600582015460208201526006909101546001600160a01b0381166040830152600160a01b900460ff16151560609091015260e08101519091508015610659575060008160a00151115b94909350915050565b8151602081840181018051600182529282019185019190912091905280548290811061068d57600080fd5b90600052602060002001600091509150505481565b6002546000906001600160a01b031633146106d85760405162461bcd60e51b81526004016106cf90610f4c565b60405180910390fd5b600380549060006106e883610f9b565b919050555060008484844260035460405160200161070a959493929190610fc2565b60408051808303601f1901815282825280516020918201206101008401835260035484526001600160a01b038a81168386019081528585018b8152606087018b9052608087018a90524260a08801523360c0880152600160e088018190526000858152958690529590942086518155905194810180546001600160a01b03191695909216949094179055905190935060028201906107a8908261105f565b50606082015160038201906107bd908261105f565b50608082015160048201906107d2908261105f565b5060a0820151600582015560c08201516006909101805460e0909301511515600160a01b026001600160a81b03199093166001600160a01b039092169190911791909117905560405160019061082990879061111f565b9081526040519081900360209081018220805460018101825560009182529190200182905561085990869061111f565b6040518091039020817f609da1dc5a288b98d4d6e35acd31d48b7967dea867215e051fb04d53fcd686eb8686426040516108959392919061113b565b60405180910390a395945050505050565b60606001826040516108b8919061111f565b908152604080519182900360209081018320805480830285018301909352828452919083018282801561090a57602002820191906000526020600020905b8154815260200190600101908083116108f6575b50505050509050919050565b6002546001600160a01b031633146109405760405162461bcd60e51b81526004016106cf90610f4c565b6000818152602081905260409020600501546109975760405162461bcd60e51b8152602060048201526016602482015275436572746966696361646f206e616f2065786973746560501b60448201526064016106cf565b600081815260208190526040902060060154600160a01b900460ff166109ff5760405162461bcd60e51b815260206004820152601b60248201527f436572746966696361646f206a6120666f69207265766f6761646f000000000060448201526064016106cf565b6000818152602081905260409081902060068101805460ff60a01b191690559051610a2d9160020190611171565b6040518091039020817fa487e231ee52a2d7ad557a7acd9a778a361dc6f60ba04fcb26ccf8e5278d023342604051610a6791815260200190565b60405180910390a350565b6002546001600160a01b03163314610a9c5760405162461bcd60e51b81526004016106cf90610f4c565b6001600160a01b038116610b075760405162461bcd60e51b815260206004820152602c60248201527f4e6f766f2070726f70726965746172696f206e616f20706f646520736572206560448201526b6e64657265636f207a65726f60a01b60648201526084016106cf565b600280546001600160a01b0319166001600160a01b0392909216919091179055565b600060208284031215610b3b57600080fd5b5035919050565b60005b83811015610b5d578181015183820152602001610b45565b50506000910152565b60008151808452610b7e816020860160208601610b42565b601f01601f19169290920160200192915050565b8881526001600160a01b03888116602083015261010060408301819052600091610bbe8483018b610b66565b91508382036060850152610bd2828a610b66565b91508382036080850152610be68289610b66565b60a08501979097529490941660c08301525090151560e0909101525095945050505050565b8215158152604060208201528151604082015260006020830151610c3a60608401826001600160a01b03169052565b506040830151610100806080850152610c57610140850183610b66565b91506060850151603f19808685030160a0870152610c758483610b66565b935060808701519150808685030160c087015250610c938382610b66565b92505060a085015160e085015260c0850151610cb9828601826001600160a01b03169052565b505060e084015180151561012085015250949350505050565b634e487b7160e01b600052604160045260246000fd5b600082601f830112610cf957600080fd5b813567ffffffffffffffff80821115610d1457610d14610cd2565b604051601f8301601f19908116603f01168101908282118183101715610d3c57610d3c610cd2565b81604052838152866020858801011115610d5557600080fd5b836020870160208301376000602085830101528094505050505092915050565b60008060408385031215610d8857600080fd5b823567ffffffffffffffff811115610d9f57600080fd5b610dab85828601610ce8565b95602094909401359450505050565b80356001600160a01b0381168114610dd157600080fd5b919050565b60008060008060808587031215610dec57600080fd5b610df585610dba565b9350602085013567ffffffffffffffff80821115610e1257600080fd5b610e1e88838901610ce8565b94506040870135915080821115610e3457600080fd5b610e4088838901610ce8565b93506060870135915080821115610e5657600080fd5b50610e6387828801610ce8565b91505092959194509250565b600060208284031215610e8157600080fd5b813567ffffffffffffffff811115610e9857600080fd5b610ea484828501610ce8565b949350505050565b6020808252825182820181905260009190848201906040850190845b81811015610ee457835183529284019291840191600101610ec8565b50909695505050505050565b600060208284031215610f0257600080fd5b610f0b82610dba565b9392505050565b600181811c90821680610f2657607f821691505b602082108103610f4657634e487b7160e01b600052602260045260246000fd5b50919050565b6020808252602f908201527f4170656e6173206f2070726f70726965746172696f20706f646520657865637560408201526e74617220657374612066756e63616f60881b606082015260800190565b600060018201610fbb57634e487b7160e01b600052601160045260246000fd5b5060010190565b60008651610fd4818460208b01610b42565b865190830190610fe8818360208b01610b42565b8651910190610ffb818360208a01610b42565b01938452505060208201526040019392505050565b601f82111561105a57600081815260208120601f850160051c810160208610156110375750805b601f850160051c820191505b8181101561105657828155600101611043565b5050505b505050565b815167ffffffffffffffff81111561107957611079610cd2565b61108d816110878454610f12565b84611010565b602080601f8311600181146110c257600084156110aa5750858301515b600019600386901b1c1916600185901b178555611056565b600085815260208120601f198616915b828110156110f1578886015182559484019460019091019084016110d2565b508582101561110f5787850151600019600388901b60f8161c191681555b5050505050600190811b01905550565b60008251611131818460208701610b42565b9190910192915050565b60608152600061114e6060830186610b66565b82810360208401526111608186610b66565b915050826040830152949350505050565b600080835461117f81610f12565b6001828116801561119757600181146111ac576111db565b60ff19841687528215158302870194506111db565b8760005260208060002060005b858110156111d25781548a8201529084019082016111b9565b50505082870194505b5092969550505050505056fea264697066735822122053bc152288815dfb41d7962190b8c6774f605097faca54e0bdb1f01c131e399464736f6c63430008130033",
  "linkReferences": {},
  "deployedLinkReferences": {}
}